:020000040800F2
:1000000000000220E9120008E5110008E7110008CD
:10001000E9110008EB110008ED11000800000000D4
:10002000000000000000000000000000EF110008C8
:10003000F111000800000000F3110008F51100089C
:100040003913000839130008391300083913000860
:100050003913000839130008391300083913000850
:100060003913000839130008391300083913000840
:100070003913000839130008391300083913000830
:100080003913000839130008391300083913000820
:100090003913000839130008391300083913000810
:1000A0003913000839130008391300083913000800
:1000B00039130008391300083913000839130008F0
:1000C00039130008391300083913000839130008E0
:1000D00039130008391300083913000839130008D0
:1000E00039130008391300083913000839130008C0
:1000F00039130008391300083913000839130008B0
:10010000391300083913000839130008391300089F
:100110003913000839130008FD11000839130008CD
:10012000391300083913000839130008391300087F
:10013000391300083913000839130008391300086F
:10014000391300083913000839130008391300085F
:10015000391300083913000839130008391300084F
:10016000391300083913000839130008391300083F
:100170003913000839130008391300080000000083
:080180003913000839130008CF
:1001880010B5054C237833B9044B13B10448AFF3C9
:1001980000800123237010BD0C0000200000000027
:1001A8009413000808B5034B1BB103490348AFF388
:1001B800008008BD00000000100000209413000813
:1001C80053B94AB9002908BF00281CBF4FF0FF31B6
:1001D8004FF0FF3000F072B9ADF1080C6DE904CEB4
:1001E80000F006F8DDF804E0DDE9022304B070470A
:1001F8002DE9F047089E04468846002B4BD18A42D9
:10020800154667D9B2FA82F24AB1C2F1200701FA5B
:1002180002F320FA07F7954047EA030894404FEAAB
:10022800154E230CB8FBFEF71FFA85FC0EFB17884A
:1002380043EA084307FB0CF1994209D9EB1807F187
:10024800FF3080F01B81994240F21881023F2B4415
:100258005B1AA4B2B3FBFEF00EFB103344EA03446E
:1002680000FB0CFCA44509D92C1900F1FF3380F0E0
:100278000781A44540F2048102382C4440EA074033
:10028800A4EB0C0400271EB1D4400023C6E90043A8
:100298003946BDE8F0878B4209D9002E00F0EB8083
:1002A8000027C6E9000138463946BDE8F087B3FAA9
:1002B80083F7002F47D18B4202D3824200F2FA80A3
:1002C800841A61EB030301209846002EE0D0C6E9AA
:1002D8000048DDE702B9FFDEB2FA82F2002A40F0F8
:1002E8008F80491B4FEA154E1FFA85F80127B1FB8D
:1002F800FEFC230C0EFB1C1143EA014308FB0CF126
:10030800994207D9EB180CF1FF3002D2994200F25A
:10031800CD808446591AA3B2B1FBFEF00EFB10142F
:1003280043EA044408FB00F8A04507D92C1900F15A
:10033800FF3302D2A04500F2B6801846A4EB0804A9
:1003480040EA0C409FE7C7F1200CBB4022FA0CFEA4
:100358004EEA030E01FA07F420FA0CF521FA0CF321
:100368004FEA1E482543B3FBF8F92C0C08FB193358
:100378001FFA8EFA44EA034309FB0AF49C4202FA84
:1003880007F200FA07F10BD91EEB030309F1FF305E
:1003980080F087809C4240F28480A9F1020973446E
:1003A8001B1BADB2B3FBF8F008FB103345EA03445E
:1003B80000FB0AFAA24508D91EEB040400F1FF333A
:1003C8006BD2A24569D90238744440EA0940A0FBBF
:1003D8000289A4EB0A044C45C2464B4654D351D07B
:1003E800002E69D0B1EB0A0564EB030404FA0CFC97
:1003F800FD40FC404CEA0505C6E90054002747E7E4
:10040800C2F1200320FA03F7954001FA02F021FA1D
:1004180003F34FEA154E3843010CB3FBFEF71FFAFE
:1004280085F80EFB173341EA034107FB08F38B42BB
:1004380004FA02F407D9691807F1FF3C2FD28B425E
:100448002DD9023F2944CB1A81B2B3FBFEF00EFB33
:10045800103341EA034100FB08F38B4207D96918BE
:1004680000F1FF3C17D28B4215D902382944C91A2A
:1004780040EA07473BE73746304609E70746E7E6DD
:100488001846FBE64145ABD2B8EB020A69EB0E020F
:1004980001381346A4E76046E9E7184695E767463A
:1004A800D1E781467CE702382C4447E7ACF1020CDF
:1004B8002B442FE7384608E73746E9E6704700BF80
:1004C80010B504460E4B18784FF47A73B3FBF0F36B
:1004D8000C4A1068B0FBF3F000F096F868B90F2CDE
:1004E80001D901200AE0002221464FF0FF3000F038
:1004F80049F8034B5C60002000E0012010BD00BFFC
:10050800000000200800002008B50B4B1A6842F4D0
:1005180000721A601A6842F480621A601A6842F41B
:1005280080721A60032000F01BF80020FFF7C8FF54
:1005380000F034FE002008BD003C0240034A116868
:10054800034B1B780B441360704700BF2800002042
:1005580000000020014B1868704700BF28000020E9
:10056800074AD36823F4E0631B041B0C000200F461
:10057800E060184340F0BF6040F40030D06070473E
:1005880000ED00E030B4174BDB68C3F30223C3F17E
:100598000704042C28BF04241D1D062D18D9033B6D
:1005A8004FF0FF3505FA04F421EA0401994005FAF1
:1005B80003F322EA0303194300280BDB0901C9B23C
:1005C80000F1604000F5614080F8001330BC7047CE
:1005D8000023E5E700F00F000901C9B2024B1954E6
:1005E800F4E700BF00ED00E014ED00E0002807DBB1
:1005F80000F01F02400901239340024A42F82030CC
:10060800704700BF00E100E00138B0F1807F0AD2F6
:10061800064B5860064AF02182F8231000209860A3
:1006280007221A6070470120704700BF10E000E001
:1006380000ED00E000230F2B00F2D780F0B482B069
:1006480039E0072200E00022B2403A430234674E04
:1006580046F82420664A1468EA4302EA04064F680A
:1006680017F4803F01D045EA0406614C26606468AF
:1006780002EA04064F6817F4003F01D045EA040671
:100688005B4C6660A46802EA04064F6817F4801F92
:1006980001D045EA0406564CA660E46822404E683C
:1006A80016F4001F01D045EA0402514CE260013300
:1006B8000F2B00F2978001229A400C6804EA020589
:1006C800AA42F4D14C68022C01D0122C10D1DE08B9
:1006D800083650F826C003F00704A7000F24BC40D2
:1006E8002CEA040C0C69BC4044EA0C0440F826408F
:1006F80004685F000326BE40F64306EA040C4C6813
:1007080004F00304BC4044EA0C0404604C6804F19F
:10071800FF3CBCF1010F03D9112C01D0122C10D1D0
:10072800846806EA040CCC68BC4044EA0C04846083
:10073800446824EA02024C68C4F300149C40144341
:100748004460C26816408A68BA403243C2604A6848
:1007580012F0805FABD000220192264A546C44F418
:1007680080445464526C02F480420192019A9C08BD
:10077800A61C1E4A52F8267003F0030296000F22A8
:10078800B24027EA02071C4A90423FF45CAF02F5E8
:10079800806290421AD002F58062904218D002F529
:1007A8008062904216D002F58062904214D002F521
:1007B8008062904212D002F58062904210D002F519
:1007C800806290423FF43DAF08223DE701223BE7BB
:1007D800022239E7032237E7042235E7052233E707
:1007E800062231E702B0F0BC70477047003801407C
:1007F800003C0140003802400000024012B90904E0
:100808008161704781617047002800F0BB8170B535
:1008180082B00446036813F0010F3BD0A74B9B68D6
:1008280003F00C03042B2CD0A44B9B6803F00C039F
:10083800082B21D06368B3F5803F4FD0B3F5A02FC4
:1008480052D09E4B1A6822F480321A601A6822F439
:1008580080221A606368002B50D0FFF77BFE0546A4
:10086800964B1B6813F4003F14D1FFF773FE401B2F
:100878006428F5D903208AE1904B5B6813F4800F54
:10088800D8D08E4B1B6813F4003F03D06368002B4D
:1008980000F07A81236813F0020F55D0874B9B68CC
:1008A80013F00C0F3ED0854B9B6803F00C03082B0C
:1008B80033D0E368002B68D0814B01221A60FFF720
:1008C80049FE05467D4B1B6813F0020F54D1FFF714
:1008D80041FE401B0228F5D9032058E1774A1368E6
:1008E80043F480331360B5E7744B1A6842F48022EE
:1008F8001A601A6842F480321A60ABE7FFF72AFEE2
:1009080005466E4B1B6813F4003FC3D0FFF722FE69
:10091800401B6428F5D9032039E1684B5B6813F460
:10092800800FC6D1654B1B6813F0020F04D0E36833
:10093800012B01D001202AE1604A136823F0F80353
:10094800216943EAC1031360236813F0080F40D0FC
:10095800636963B35B4B01221A60FFF7FBFD054631
:10096800564B5B6F13F0020F33D1FFF7F3FD401BBB
:100978000228F5D903200AE1504A136823F0F80346
:10098800216943EAC1031360DEE74D4B00221A6078
:10099800FFF7E0FD0546494B1B6813F0020FD3D063
:1009A800FFF7D8FD401B0228F5D90320EFE0454B9F
:1009B80000221A60FFF7CEFD0546404B5B6F13F02F
:1009C800020F06D0FFF7C6FD401B0228F5D9032009
:1009D800DDE0236813F0040F79D0384B1B6C13F05B
:1009E800805F33D100230193344B1A6C42F080525C
:1009F8001A641B6C03F080530193019B0125324B51
:100A08001B6813F4807F23D0A368012B34D0052BF7
:100A180038D02A4B1A6F22F001021A671A6F22F097
:100A280004021A67A368002B36D0FFF793FD064629
:100A3800224B1B6F13F0020F48D1FFF78BFD801B71
:100A480041F288339842F3D90320A0E00025D6E785
:100A58001D4A136843F480731360FFF77BFD064655
:100A6800194B1B6813F4807FCED1FFF773FD801BF1
:100A78000228F5D903208AE0104A136F43F00103D6
:100A88001367CFE70D4B1A6F42F004021A671A6F0B
:100A980042F001021A67C5E7FFF75CFD0646074BFF
:100AA8001B6F13F0020F11D0FFF754FD801B41F2AA
:100AB80088339842F3D9032069E000BF0038024028
:100AC80000004742800E474200700040E5B9A36924
:100AD800002B5BD0304A926802F00C02082A58D0EA
:100AE800022B17D02D4B00221A60FFF733FD044666
:100AF800294B1B6813F0007F42D0FFF72BFD001B2A
:100B08000228F5D9032042E0234A136C23F08053CE
:100B18001364DCE7214B00221A60FFF71BFD054632
:100B28001D4B1B6813F0007F06D0FFF713FD401B19
:100B38000228F5D903202AE0E369226A1343626A8E
:100B480043EA8213A26A5208013A43EA0243E26A7C
:100B580043EA0263104A5360104B01221A60FFF700
:100B6800F9FC04460C4B1B6813F0007F06D1FFF715
:100B7800F1FC001B0228F5D9032008E0002006E05C
:100B8800002004E001207047012000E0002002B0AE
:100B980070BD0120FBE700BF0038024060004742FB
:100BA800324B9B6803F00C03042B5CD0082B01D05C
:100BB8002F4870472DE9F04B2C4B5A6802F03F0242
:100BC8005B6813F4800F2BD0284B5B68C3F3881342
:100BD8001E4600275C010025E41A65EB0705A901FC
:100BE80041EA9461A001001B61EB0501CB0043EAD7
:100BF8005073C400A01943EB07014B0243EAD053DA
:100C08004402204619460023FFF7DAFA174B5B68BF
:100C1800C3F3014301335B00B0FBF3F0BDE8F08B95
:100C2800124B5B68C3F388131E4600275C0100253E
:100C3800E41A65EB0705A90141EA9461A001001BCC
:100C480061EB0501CB0043EA5073C400A01943EBE4
:100C580007018B0243EA9053840220461946002379
:100C6800FFF7AEFAD2E70348704700BF00380240EA
:100C78000024F40000127A00002800F09D8070B56E
:100C880004464F4B1B6803F00F038B4209D2CBB2CB
:100C98004B4A1370136803F00F038B4201D00120F5
:100CA80070BD236813F0020F17D013F0040F04D09F
:100CB800444A936843F4E0539360236813F0080FA1
:100CC80004D0404A936843F4604393603D4A936874
:100CD80023F0F003A068034393600D46236813F0E4
:100CE800010F32D06368012B21D09A1E012A25D921
:100CF800344A126812F0020F60D032498A6822F032
:100D0800030213438B60FFF725FC06462D4B9B68B7
:100D180003F00C036268B3EB820F16D0FFF71AFCDE
:100D2800801B41F288339842F0D90320B8E7254A5E
:100D3800126812F4003FE0D10120B1E7214A12689D
:100D480012F0007FD9D10120AAE71D4B1B6803F0E0
:100D58000F03AB4209D9EAB2194B1A701B6803F0AA
:100D68000F03AB4201D001209AE7236813F0040F68
:100D780006D0144A936823F4E053E1680B43936068
:100D8800236813F0080F07D00E4A936823F46043D2
:100D9800216943EAC1039360FFF702FF094B9B688F
:100DA800C3F30313084AD35CD840084B18600020EB
:100DB800FFF786FB002073E70120704701206FE7EB
:100DC800003C024000380240AC1300080800002034
:100DD8007047704770477047704710B504460368FE
:100DE8001A6912F0020F11D0DA6812F0020F0DD052
:100DF8006FF002021A610123037703689B6913F0FD
:100E0800030F70D0FFF7E6FF0023237723681A69E2
:100E180012F0040F12D0DA6812F0040F0ED06FF03F
:100E280004021A610223237723689B6913F4407F25
:100E38005FD02046FFF7CEFF0023237723681A6987
:100E480012F0080F12D0DA6812F0080F0ED06FF007
:100E580008021A61042323772368DB6913F0030F60
:100E68004ED02046FFF7B6FF0023237723681A6980
:100E780012F0100F12D0DA6812F0100F0ED06FF0C7
:100E880010021A61082323772368DB6913F4407F73
:100E98003DD02046FFF79EFF0023237723681A6979
:100EA80012F0010F03D0DA6812F0010F36D123686F
:100EB8001A6912F0800F03D0DA6812F0800F34D16B
:100EC80023681A6912F0400F03D0DA6812F0400F55
:100ED80032D123681A6912F0200F03D0DA6812F0B1
:100EE800200F30D110BDFFF774FF2046FFF773FFC6
:100EF8008AE72046FFF76DFF2046FFF76CFF9BE768
:100F08002046FFF766FF2046FFF765FFACE720465F
:100F1800FFF75FFF2046FFF75EFFBDE76FF00102B6
:100F28001A612046FFF754FFC1E76FF080021A618B
:100F3800204600F0B0F8C3E76FF040021A6120467F
:100F4800FFF74AFFC5E76FF020021A61204600F05C
:100F5800A1F8C7E70368304A904212D0B0F1804F39
:100F68000FD0A2F57C4290420BD002F580629042ED
:100F780007D002F58062904203D002F57842904291
:100F880003D123F070034A681343234A90422AD0BE
:100F9800B0F1804F27D0A2F57C42904223D002F5D1
:100FA800806290421FD002F5806290421BD002F509
:100FB8007842904217D002F57052904213D002F551
:100FC800806290420FD002F5806290420BD0A2F569
:100FD8009832904207D002F58062904203D002F521
:100FE8008062904203D123F44073CA68134323F00C
:100FF80080034A69134303608B68C3620B6883628A
:10100800054B984203D003F58063984201D10B69E0
:10101800036301234361704700000140A8B110B584
:10102800044690F83D305BB1022384F83D30211D21
:101038002068FFF78FFF012384F83D30002010BDA2
:1010480080F83C3000F02CF9EEE70120704790F86A
:101058003C30012B1CD070B4012680F83C60022380
:1010680080F83D3002685568936825F070050C6873
:101078002C4323F080054B682B435460026893602F
:1010880080F83D60002380F83C30184670BC7047FB
:10109800022070477047704730B587B0002401942C
:1010A800029403940494059400940F4B1A6B42F035
:1010B80008021A631B6B03F008030093009B0B4D97
:1010C80022464FF470412846FFF798FB4FF47043CF
:1010D8000193012302930394049401A92846FFF77E
:1010E800A9FA07B030BD00BF00380240000C02402A
:1010F80030B595B03022002108A800F03FF900244F
:101108000394049405940694079401941B4B1A6C59
:1011180042F080521A641B6C03F080530193019BC8
:101128000294174B1A6842F480421A601B6803F451
:1011380080430293029B0225089501230B931023F9
:101148000C930E950F9408231093A82311931295CE
:101158000723139308A8FFF757FB0F23039304955E
:1011680005944FF4A05306934FF480530793052139
:1011780003A8FFF781FD15B030BD00BF003802405D
:101188000070004008B5FFF7BFF9FFF7B1FFFFF7A0
:1011980083FF00F05DF8FEE77047000000B583B0FC
:1011A800002100910C4B5A6C42F480425A645A6CEC
:1011B80002F480420092009A01911A6C42F0805227
:1011C8001A641B6C03F080530193019B0720FFF7FF
:1011D800C7F903B05DF804FB003802407047FEE72A
:1011E800FEE7FEE7FEE770477047704708B5FFF770
:1011F800A5F908BD08B50248FFF7EFFD08BD00BF17
:101208002C0000200F49D1F8883043F47003C1F84E
:1012180088300D4B1A6842F001021A60002098606D
:101228001A6822F0847222F480321A60074A5A60DF
:101238001A6822F480221A60D8604FF000638B602D
:10124800704700BF00ED00E0003802401030002475
:1012580000B583B00023009301930F480F4A026042
:1012680054224260836042F21072C2608361FFF7C9
:10127800D5FE50B900230093019369460648FFF74D
:10128800E6FE28B903B05DF804FBFFF785FFF1E738
:10129800FFF782FFF6E700BF2C0000200010004097
:1012A80002680E4B9A4200D0704700B583B0002107
:1012B800019103F50A331A6C42F010021A641B6C90
:1012C80003F010030193019B0A463620FFF75AF9F1
:1012D8003620FFF78BF903B05DF804FB00100040DF
:1012E800DFF834D0002103E00C4B5B584350043145
:1012F8000B480C4B42189A42F6D30B4A02E00023E3
:1013080042F8043B094B9A42F9D3FFF77BFF00F000
:1013180011F8FFF737FF704700000220D4130008C8
:10132800000000200C0000200C0000206C000020B1
:10133800FEE7000070B50D4E0D4CA41BA41000254F
:10134800A54209D10B4E0C4C00F020F8A41BA410A8
:101358000025A54205D170BD56F8253098470135BE
:10136800EEE756F8253098470135F2E7CC13000828
:10137800CC130008CC130008D0130008024403461D
:10138800934200D1704703F8011BF9E7F8B500BF95
:10139800F8BC08BC9E467047F8B500BFF8BC08BC4E
:0413A8009E467047A6
:1013AC000000000000000000010203040607080909
:0813BC0000000000010203041F
:0813C40034EEFF7F0100000080
:0413CC00AD01000867
:0413D0008901000887
:0C13D40001000000100000000024F400E4
:04000005080012E9F4
:00000001FF
